:100000000C942A000C94CF010C94CF010C94CF01D6
:100010000C94CF010C94CF010C94CF010C94CF0120
:100020000C94CF010C94CF010C94CF010C94CF0110
:100030000C94B8010C94CF010C94CF010C94CF0117
:100040000C94CF010C94CF010C94CF010C94CF01F0
:100050000C94CF0111241FBECFE5D8E0DEBFCDBF89
:0C0060000E94C2010C94AD01F894FFCF87
:10006C004423B9F1413009F06BC0813089F028F09C
:10007C008230C9F0833011F108952AB381E090E009
:10008C0002C0880F991F6A95E2F7822B8ABB0895EC
:10009C0027B381E090E002C0880F991F6A95E2F7C0
:1000AC00822B87BB089524B381E090E002C0880FB7
:1000BC00991F6A95E2F7822B84BB089521B381E0E6
:1000CC0090E002C0880F991F6A95E2F7822B81BBE2
:1000DC000895813091F028F08230D9F0833029F1E5
:1000EC0008952AB381E090E002C0880F991F6A95A9
:1000FC00E2F7809582238ABB089527B381E090E0D4
:10010C0002C0880F991F6A95E2F78095822387BBFE
:10011C00089524B381E090E002C0880F991F6A957E
:10012C00E2F78095822384BB089521B381E090E0AF
:10013C0002C0880F991F6A95E2F78095822381BBD4
:02014C00089514
:10014E004423B9F1413009F06BC0813089F028F0B9
:10015E008230C9F0833011F108952BB381E090E025
:10016E0002C0880F991F6A95E2F7822B8BBB089508
:10017E0028B381E090E002C0880F991F6A95E2F7DC
:10018E00822B88BB089525B381E090E002C0880FD2
:10019E00991F6A95E2F7822B85BB089522B381E001
:1001AE0090E002C0880F991F6A95E2F7822B82BBFE
:1001BE000895813091F028F08230D9F0833029F102
:1001CE0008952BB381E090E002C0880F991F6A95C5
:1001DE00E2F7809582238BBB089528B381E090E0EF
:1001EE0002C0880F991F6A95E2F78095822388BB1B
:1001FE00089525B381E090E002C0880F991F6A959B
:10020E00E2F78095822385BB089522B381E090E0CA
:10021E0002C0880F991F6A95E2F78095822382BBF0
:02022E00089531
:10023000CF93DF9300D0CDB7DEB719821A828981C0
:100240008064898389818F7789838981877F898386
:1002500089818B7F89838A818E7F8A8389818E7F42
:10026000898389818D7F898389818062898341E047
:1002700064E081E00E94360041E065E081E00E9498
:10028000360040E066E081E00E94360041E067E031
:1002900081E00E94360089818061898341E064E0C9
:1002A00081E00E94A70089818DB98A818EB90F9063
:0802B0000F90DF91CF9108953A
:1002B800813089F028F08230C9F0833011F1089537
:1002C8002BB381E090E002C0880F991F6A95E2F78E
:1002D80082278BBB089528B381E090E002C0880F85
:1002E800991F6A95E2F7822788BB089525B381E0B4
:1002F80090E002C0880F991F6A95E2F7822785BBB4
:10030800089522B381E090E002C0880F991F6A9592
:08031800E2F7822782BB089581
:100320000E94C701813469F467E080E00E945C01AB
:100330002FEF89E698E1215080409040E1F700C01E
:04034000000008951C
:100344000E94180141E067E080E00E94360081E4E9
:060354000E94CB01089598
:10035A00EC010E94D4010E94D301CE010E94D50172
:06036A00CE010E94D1014A
:100370001F920F920FB60F9211240F900FBE0F9085
:040380001F9018951D
:0A0384000E94A2010E949001FDCF2B
:08038E00779BFECF8FB10895AB
:080396008FB9779BFECF08959B
:04039E000C940000BB
:0403A2000E94340081
:0203A6000895B8
:0203A8000895B6
:0203AA000895B4
:00000001FF
